{
  "address": "0x569dA7b38950520df8841a8a2E302b70BF26Ac94",
  "abi": [
    {
      "inputs": [],
      "stateMutability": "nonpayable",
      "type": "constructor"
    },
    {
      "inputs": [
        {
          "internalType": "bytes",
          "name": "transactions",
          "type": "bytes"
        }
      ],
      "name": "multiSend",
      "outputs": [],
      "stateMutability": "payable",
      "type": "function"
    }
  ],
  "transactionHash": "0xea62eb49b695a08734908a5dfb2252438784b74d6b441d3c0013871e8b1df72c",
  "args": [],
  "numDeployments": 1,
  "solcInputHash": "5cdc9b77edb07d4afc102ff7104d076c",
  "bytecode": "0x60a060405234801561001057600080fd5b503073ffffffffffffffffffffffffffffffffffffffff1660808173ffffffffffffffffffffffffffffffffffffffff1660601b8152505060805160601c6102756100646000398060e052506102756000f3fe60806040526004361061001e5760003560e01c80638d80ff0a14610023575b600080fd5b6100dc6004803603602081101561003957600080fd5b810190808035906020019064010000000081111561005657600080fd5b82018360208201111561006857600080fd5b8035906020019184600183028401116401000000008311171561008a57600080fd5b91908080601f016020809104026020016040519081016040528093929190818152602001838380828437600081840152601f19601f8201169050808301925050505050505091929192905050506100de565b005b7f000000000000000000000000000000000000000000000000000000000000000073ffffffffffffffffffffffffffffffffffffffff163073ffffffffffffffffffffffffffffffffffffffff161415610183576040517f08c379a00000000000000000000000000000000000000000000000000000000081526004018080602001828103825260308152602001806102106030913960400191505060405180910390fd5b805160205b8181101561020a578083015160f81c6001820184015160601c6015830185015160358401860151605585018701600085600081146101cd57600181146101dd576101e8565b6000808585888a5af191506101e8565b6000808585895af491505b5060008114156101f757600080fd5b8260550187019650505050505050610188565b50505056fe4d756c746953656e642073686f756c64206f6e6c792062652063616c6c6564207669612064656c656761746563616c6ca264697066735822122021102e6d5bc1da75411b41fe2792a1748bf5c49c794e51e81405ccd2399da13564736f6c63430007060033",
  "devdoc": {
    "author": "Nick Dodson - <nick.dodson@consensys.net>Gonçalo Sá - <goncalo.sa@consensys.net>Stefan George - @Georgi87Richard Meissner - @rmeissner",
    "kind": "dev",
    "methods": {
      "multiSend(bytes)": {
        "details": "Sends multiple transactions and reverts all if one fails.",
        "params": {
          "transactions": "Encoded transactions. Each transaction is encoded as a packed bytes of                     operation as a uint8 with 0 for a call or 1 for a delegatecall (=> 1 byte),                     to as a address (=> 20 bytes),                     value as a uint256 (=> 32 bytes),                     data length as a uint256 (=> 32 bytes),                     data as bytes.                     see abi.encodePacked for more information on packed encoding"
        }
      }
    },
    "title": "Multi Send - Allows to batch multiple transactions into one.",
    "version": 1
  },
  "userdoc": {
    "kind": "user",
    "methods": {
      "multiSend(bytes)": {
        "notice": "This method is payable as delegatecalls keep the msg.value from the previous call         If the calling method (e.g. execTransaction) received ETH this would revert otherwise"
      }
    },
    "version": 1
  },
  "storageLayout": {
    "storage": [],
    "types": null
  }
}