{
  "address": "0x45B4222aF811cF23654E4b9D0Ddf23772474068E",
  "abi": [
    {
      "inputs": [],
      "stateMutability": "nonpayable",
      "type": "constructor"
    },
    {
      "inputs": [
        {
          "internalType": "address",
          "name": "to",
          "type": "address"
        },
        {
          "internalType": "uint256",
          "name": "value",
          "type": "uint256"
        },
        {
          "internalType": "bytes",
          "name": "data",
          "type": "bytes"
        },
        {
          "internalType": "enum Enum.Operation",
          "name": "operation",
          "type": "uint8"
        }
      ],
      "name": "simulate",
      "outputs": [
        {
          "internalType": "uint256",
          "name": "estimate",
          "type": "uint256"
        },
        {
          "internalType": "bool",
          "name": "success",
          "type": "bool"
        },
        {
          "internalType": "bytes",
          "name": "returnData",
          "type": "bytes"
        }
      ],
      "stateMutability": "nonpayable",
      "type": "function"
    }
  ],
  "transactionHash": "0x55328d34c5c8a1f5dbd945c9c18027af0db7cc17938cf3d6fe13ea6e68f27580",
  "args": [],
  "numDeployments": 1,
  "solcInputHash": "5cdc9b77edb07d4afc102ff7104d076c",
  "bytecode": "0x60a060405234801561001057600080fd5b503073ffffffffffffffffffffffffffffffffffffffff1660808173ffffffffffffffffffffffffffffffffffffffff1660601b8152505060805160601c6103526100656000398061017052506103526000f3fe608060405234801561001057600080fd5b506004361061002b5760003560e01c80631c5fb21114610030575b600080fd5b6100de6004803603608081101561004657600080fd5b81019080803573ffffffffffffffffffffffffffffffffffffffff169060200190929190803590602001909291908035906020019064010000000081111561008d57600080fd5b82018360208201111561009f57600080fd5b803590602001918460018302840111640100000000831117156100c157600080fd5b9091929391929390803560ff169060200190929190505050610169565b60405180848152602001831515815260200180602001828103825283818151815260200191508051906020019080838360005b8381101561012c578082015181840152602081019050610111565b50505050905090810190601f1680156101595780820380516001836020036101000a031916815260200191505b5094505050505060405180910390f35b60008060607f000000000000000000000000000000000000000000000000000000000000000073ffffffffffffffffffffffffffffffffffffffff163073ffffffffffffffffffffffffffffffffffffffff161415610213576040517f08c379a00000000000000000000000000000000000000000000000000000000081526004018080602001828103825260398152602001806102e46039913960400191505060405180910390fd5b60005a9050610269898989898080601f016020809104026020016040519081016040528093929190818152602001838380828437600081840152601f19601f82011690508083019250505050505050885a610297565b92505a8103935060405160203d0181016040523d81523d6000602083013e8092505050955095509592505050565b60006001808111156102a557fe5b8360018111156102b157fe5b14156102ca576000808551602087018986f490506102da565b600080855160208701888a87f190505b9594505050505056fe53696d756c61746554784163636573736f722073686f756c64206f6e6c792062652063616c6c6564207669612064656c656761746563616c6ca264697066735822122066ec514c62d72e456c1ac0997627506854acd03fceabe3c0532054bd50122c9064736f6c63430007060033",
  "devdoc": {
    "author": "Richard Meissner - @rmeissner",
    "kind": "dev",
    "methods": {
      "simulate(address,uint256,bytes,uint8)": {
        "details": "Executes the specified operation {Call, DelegateCall} and returns operation-specific data.      Has to be called via delegatecall.      This returns the data equal to `abi.encode(uint256(etimate), bool(success), bytes(returnData))`.      Specifically, the returndata will be:      `estimate:uint256 || success:bool || returnData.length:uint256 || returnData:bytes`.",
        "params": {
          "data": "Data payload.",
          "operation": "Operation type {Call, DelegateCall}.",
          "to": "Destination address .",
          "value": "Native token value."
        },
        "returns": {
          "estimate": "Gas used.",
          "returnData": "Return data.",
          "success": "Success boolean value."
        }
      }
    },
    "title": "Simulate Transaction Accessor.",
    "version": 1
  },
  "userdoc": {
    "kind": "user",
    "methods": {
      "simulate(address,uint256,bytes,uint8)": {
        "notice": "Simulates a Safe transaction and returns the used gas, success boolean and the return data."
      }
    },
    "notice": "Can be used with StorageAccessible to simulate Safe transactions.",
    "version": 1
  },
  "storageLayout": {
    "storage": [],
    "types": null
  }
}